{
  "_format": "hh-sol-artifact-1",
  "contractName": "InternshipSystem",
  "sourceName": "contracts/InternshipSystem.sol",
  "abi": [
    {
      "inputs": [],
      "stateMutability": "nonpayable",
      "type": "constructor"
    },
    {
      "inputs": [],
      "name": "AccessControlBadConfirmation",
      "type": "error"
    },
    {
      "inputs": [
        {
          "internalType": "address",
          "name": "account",
          "type": "address"
        },
        {
          "internalType": "bytes32",
          "name": "neededRole",
          "type": "bytes32"
        }
      ],
      "name": "AccessControlUnauthorizedAccount",
      "type": "error"
    },
    {
      "inputs": [
        {
          "internalType": "address",
          "name": "sender",
          "type": "address"
        },
        {
          "internalType": "uint256",
          "name": "tokenId",
          "type": "uint256"
        },
        {
          "internalType": "address",
          "name": "owner",
          "type": "address"
        }
      ],
      "name": "ERC721IncorrectOwner",
      "type": "error"
    },
    {
      "inputs": [
        {
          "internalType": "address",
          "name": "operator",
          "type": "address"
        },
        {
          "internalType": "uint256",
          "name": "tokenId",
          "type": "uint256"
        }
      ],
      "name": "ERC721InsufficientApproval",
      "type": "error"
    },
    {
      "inputs": [
        {
          "internalType": "address",
          "name": "approver",
          "type": "address"
        }
      ],
      "name": "ERC721InvalidApprover",
      "type": "error"
    },
    {
      "inputs": [
        {
          "internalType": "address",
          "name": "operator",
          "type": "address"
        }
      ],
      "name": "ERC721InvalidOperator",
      "type": "error"
    },
    {
      "inputs": [
        {
          "internalType": "address",
          "name": "owner",
          "type": "address"
        }
      ],
      "name": "ERC721InvalidOwner",
      "type": "error"
    },
    {
      "inputs": [
        {
          "internalType": "address",
          "name": "receiver",
          "type": "address"
        }
      ],
      "name": "ERC721InvalidReceiver",
      "type": "error"
    },
    {
      "inputs": [
        {
          "internalType": "address",
          "name": "sender",
          "type": "address"
        }
      ],
      "name": "ERC721InvalidSender",
      "type": "error"
    },
    {
      "inputs": [
        {
          "internalType": "uint256",
          "name": "tokenId",
          "type": "uint256"
        }
      ],
      "name": "ERC721NonexistentToken",
      "type": "error"
    },
    {
      "inputs": [],
      "name": "EnforcedPause",
      "type": "error"
    },
    {
      "inputs": [],
      "name": "ExpectedPause",
      "type": "error"
    },
    {
      "anonymous": false,
      "inputs": [
        {
          "indexed": true,
          "internalType": "address",
          "name": "owner",
          "type": "address"
        },
        {
          "indexed": true,
          "internalType": "address",
          "name": "approved",
          "type": "address"
        },
        {
          "indexed": true,
          "internalType": "uint256",
          "name": "tokenId",
          "type": "uint256"
        }
      ],
      "name": "Approval",
      "type": "event"
    },
    {
      "anonymous": false,
      "inputs": [
        {
          "indexed": true,
          "internalType": "address",
          "name": "owner",
          "type": "address"
        },
        {
          "indexed": true,
          "internalType": "address",
          "name": "operator",
          "type": "address"
        },
        {
          "indexed": false,
          "internalType": "bool",
          "name": "approved",
          "type": "bool"
        }
      ],
      "name": "ApprovalForAll",
      "type": "event"
    },
    {
      "anonymous": false,
      "inputs": [
        {
          "indexed": false,
          "internalType": "uint256",
          "name": "_fromTokenId",
          "type": "uint256"
        },
        {
          "indexed": false,
          "internalType": "uint256",
          "name": "_toTokenId",
          "type": "uint256"
        }
      ],
      "name": "BatchMetadataUpdate",
      "type": "event"
    },
    {
      "anonymous": false,
      "inputs": [
        {
          "indexed": true,
          "internalType": "address",
          "name": "student",
          "type": "address"
        },
        {
          "indexed": true,
          "internalType": "uint256",
          "name": "tokenId",
          "type": "uint256"
        }
      ],
      "name": "CertificateMinted",
      "type": "event"
    },
    {
      "anonymous": false,
      "inputs": [
        {
          "indexed": true,
          "internalType": "uint256",
          "name": "internshipId",
          "type": "uint256"
        },
        {
          "indexed": true,
          "internalType": "address",
          "name": "company",
          "type": "address"
        }
      ],
      "name": "CompanyValidated",
      "type": "event"
    },
    {
      "anonymous": false,
      "inputs": [
        {
          "indexed": true,
          "internalType": "address",
          "name": "company",
          "type": "address"
        }
      ],
      "name": "CompanyWhitelisted",
      "type": "event"
    },
    {
      "anonymous": false,
      "inputs": [
        {
          "indexed": true,
          "internalType": "uint256",
          "name": "internshipId",
          "type": "uint256"
        },
        {
          "indexed": false,
          "internalType": "uint8",
          "name": "grade",
          "type": "uint8"
        },
        {
          "indexed": true,
          "internalType": "address",
          "name": "supervisor",
          "type": "address"
        }
      ],
      "name": "GradeAssigned",
      "type": "event"
    },
    {
      "anonymous": false,
      "inputs": [
        {
          "indexed": true,
          "internalType": "uint256",
          "name": "internshipId",
          "type": "uint256"
        },
        {
          "indexed": true,
          "internalType": "address",
          "name": "student",
          "type": "address"
        },
        {
          "indexed": true,
          "internalType": "address",
          "name": "company",
          "type": "address"
        },
        {
          "indexed": false,
          "internalType": "address",
          "name": "supervisor",
          "type": "address"
        }
      ],
      "name": "InternshipCreated",
      "type": "event"
    },
    {
      "anonymous": false,
      "inputs": [
        {
          "indexed": false,
          "internalType": "uint256",
          "name": "_tokenId",
          "type": "uint256"
        }
      ],
      "name": "MetadataUpdate",
      "type": "event"
    },
    {
      "anonymous": false,
      "inputs": [
        {
          "indexed": false,
          "internalType": "address",
          "name": "account",
          "type": "address"
        }
      ],
      "name": "Paused",
      "type": "event"
    },
    {
      "anonymous": false,
      "inputs": [
        {
          "indexed": true,
          "internalType": "uint256",
          "name": "internshipId",
          "type": "uint256"
        },
        {
          "indexed": false,
          "internalType": "string",
          "name": "ipfsHash",
          "type": "string"
        }
      ],
      "name": "ReportSubmitted",
      "type": "event"
    },
    {
      "anonymous": false,
      "inputs": [
        {
          "indexed": true,
          "internalType": "uint256",
          "name": "internshipId",
          "type": "uint256"
        },
        {
          "indexed": true,
          "internalType": "address",
          "name": "supervisor",
          "type": "address"
        }
      ],
      "name": "ReportValidated",
      "type": "event"
    },
    {
      "anonymous": false,
      "inputs": [
        {
          "indexed": true,
          "internalType": "bytes32",
          "name": "role",
          "type": "bytes32"
        },
        {
          "indexed": true,
          "internalType": "bytes32",
          "name": "previousAdminRole",
          "type": "bytes32"
        },
        {
          "indexed": true,
          "internalType": "bytes32",
          "name": "newAdminRole",
          "type": "bytes32"
        }
      ],
      "name": "RoleAdminChanged",
      "type": "event"
    },
    {
      "anonymous": false,
      "inputs": [
        {
          "indexed": true,
          "internalType": "bytes32",
          "name": "role",
          "type": "bytes32"
        },
        {
          "indexed": true,
          "internalType": "address",
          "name": "account",
          "type": "address"
        },
        {
          "indexed": true,
          "internalType": "address",
          "name": "sender",
          "type": "address"
        }
      ],
      "name": "RoleGranted",
      "type": "event"
    },
    {
      "anonymous": false,
      "inputs": [
        {
          "indexed": true,
          "internalType": "bytes32",
          "name": "role",
          "type": "bytes32"
        },
        {
          "indexed": true,
          "internalType": "address",
          "name": "account",
          "type": "address"
        },
        {
          "indexed": true,
          "internalType": "address",
          "name": "sender",
          "type": "address"
        }
      ],
      "name": "RoleRevoked",
      "type": "event"
    },
    {
      "anonymous": false,
      "inputs": [
        {
          "indexed": true,
          "internalType": "address",
          "name": "from",
          "type": "address"
        },
        {
          "indexed": true,
          "internalType": "address",
          "name": "to",
          "type": "address"
        },
        {
          "indexed": true,
          "internalType": "uint256",
          "name": "tokenId",
          "type": "uint256"
        }
      ],
      "name": "Transfer",
      "type": "event"
    },
    {
      "anonymous": false,
      "inputs": [
        {
          "indexed": false,
          "internalType": "address",
          "name": "account",
          "type": "address"
        }
      ],
      "name": "Unpaused",
      "type": "event"
    },
    {
      "inputs": [],
      "name": "COMPANY_ROLE",
      "outputs": [
        {
          "internalType": "bytes32",
          "name": "",
          "type": "bytes32"
        }
      ],
      "stateMutability": "view",
      "type": "function"
    },
    {
      "inputs": [],
      "name": "DEFAULT_ADMIN_ROLE",
      "outputs": [
        {
          "internalType": "bytes32",
          "name": "",
          "type": "bytes32"
        }
      ],
      "stateMutability": "view",
      "type": "function"
    },
    {
      "inputs": [],
      "name": "SUPERVISOR_ROLE",
      "outputs": [
        {
          "internalType": "bytes32",
          "name": "",
          "type": "bytes32"
        }
      ],
      "stateMutability": "view",
      "type": "function"
    },
    {
      "inputs": [
        {
          "internalType": "address",
          "name": "to",
          "type": "address"
        },
        {
          "internalType": "uint256",
          "name": "tokenId",
          "type": "uint256"
        }
      ],
      "name": "approve",
      "outputs": [],
      "stateMutability": "nonpayable",
      "type": "function"
    },
    {
      "inputs": [
        {
          "internalType": "uint256",
          "name": "internshipId",
          "type": "uint256"
        },
        {
          "internalType": "uint8",
          "name": "finalGrade",
          "type": "uint8"
        }
      ],
      "name": "assignGrade",
      "outputs": [],
      "stateMutability": "nonpayable",
      "type": "function"
    },
    {
      "inputs": [
        {
          "internalType": "address",
          "name": "owner",
          "type": "address"
        }
      ],
      "name": "balanceOf",
      "outputs": [
        {
          "internalType": "uint256",
          "name": "",
          "type": "uint256"
        }
      ],
      "stateMutability": "view",
      "type": "function"
    },
    {
      "inputs": [
        {
          "internalType": "address",
          "name": "student",
          "type": "address"
        },
        {
          "internalType": "address",
          "name": "company",
          "type": "address"
        },
        {
          "internalType": "address",
          "name": "supervisor",
          "type": "address"
        }
      ],
      "name": "createInternship",
      "outputs": [],
      "stateMutability": "nonpayable",
      "type": "function"
    },
    {
      "inputs": [
        {
          "internalType": "uint256",
          "name": "tokenId",
          "type": "uint256"
        }
      ],
      "name": "getApproved",
      "outputs": [
        {
          "internalType": "address",
          "name": "",
          "type": "address"
        }
      ],
      "stateMutability": "view",
      "type": "function"
    },
    {
      "inputs": [
        {
          "internalType": "uint256",
          "name": "internshipId",
          "type": "uint256"
        }
      ],
      "name": "getInternship",
      "outputs": [
        {
          "internalType": "address",
          "name": "student",
          "type": "address"
        },
        {
          "internalType": "address",
          "name": "company",
          "type": "address"
        },
        {
          "internalType": "address",
          "name": "supervisor",
          "type": "address"
        },
        {
          "internalType": "bool",
          "name": "companyValidated",
          "type": "bool"
        },
        {
          "internalType": "bool",
          "name": "reportValidated",
          "type": "bool"
        },
        {
          "internalType": "uint8",
          "name": "grade",
          "type": "uint8"
        },
        {
          "internalType": "string",
          "name": "reportIPFSHash",
          "type": "string"
        },
        {
          "internalType": "bool",
          "name": "isGraded",
          "type": "bool"
        }
      ],
      "stateMutability": "view",
      "type": "function"
    },
    {
      "inputs": [
        {
          "internalType": "bytes32",
          "name": "role",
          "type": "bytes32"
        }
      ],
      "name": "getRoleAdmin",
      "outputs": [
        {
          "internalType": "bytes32",
          "name": "",
          "type": "bytes32"
        }
      ],
      "stateMutability": "view",
      "type": "function"
    },
    {
      "inputs": [
        {
          "internalType": "bytes32",
          "name": "role",
          "type": "bytes32"
        },
        {
          "internalType": "address",
          "name": "account",
          "type": "address"
        }
      ],
      "name": "grantRole",
      "outputs": [],
      "stateMutability": "nonpayable",
      "type": "function"
    },
    {
      "inputs": [
        {
          "internalType": "bytes32",
          "name": "role",
          "type": "bytes32"
        },
        {
          "internalType": "address",
          "name": "account",
          "type": "address"
        }
      ],
      "name": "hasRole",
      "outputs": [
        {
          "internalType": "bool",
          "name": "",
          "type": "bool"
        }
      ],
      "stateMutability": "view",
      "type": "function"
    },
    {
      "inputs": [
        {
          "internalType": "address",
          "name": "owner",
          "type": "address"
        },
        {
          "internalType": "address",
          "name": "operator",
          "type": "address"
        }
      ],
      "name": "isApprovedForAll",
      "outputs": [
        {
          "internalType": "bool",
          "name": "",
          "type": "bool"
        }
      ],
      "stateMutability": "view",
      "type": "function"
    },
    {
      "inputs": [],
      "name": "name",
      "outputs": [
        {
          "internalType": "string",
          "name": "",
          "type": "string"
        }
      ],
      "stateMutability": "view",
      "type": "function"
    },
    {
      "inputs": [
        {
          "internalType": "uint256",
          "name": "tokenId",
          "type": "uint256"
        }
      ],
      "name": "ownerOf",
      "outputs": [
        {
          "internalType": "address",
          "name": "",
          "type": "address"
        }
      ],
      "stateMutability": "view",
      "type": "function"
    },
    {
      "inputs": [],
      "name": "pause",
      "outputs": [],
      "stateMutability": "nonpayable",
      "type": "function"
    },
    {
      "inputs": [],
      "name": "paused",
      "outputs": [
        {
          "internalType": "bool",
          "name": "",
          "type": "bool"
        }
      ],
      "stateMutability": "view",
      "type": "function"
    },
    {
      "inputs": [
        {
          "internalType": "bytes32",
          "name": "role",
          "type": "bytes32"
        },
        {
          "internalType": "address",
          "name": "callerConfirmation",
          "type": "address"
        }
      ],
      "name": "renounceRole",
      "outputs": [],
      "stateMutability": "nonpayable",
      "type": "function"
    },
    {
      "inputs": [
        {
          "internalType": "bytes32",
          "name": "role",
          "type": "bytes32"
        },
        {
          "internalType": "address",
          "name": "account",
          "type": "address"
        }
      ],
      "name": "revokeRole",
      "outputs": [],
      "stateMutability": "nonpayable",
      "type": "function"
    },
    {
      "inputs": [
        {
          "internalType": "address",
          "name": "from",
          "type": "address"
        },
        {
          "internalType": "address",
          "name": "to",
          "type": "address"
        },
        {
          "internalType": "uint256",
          "name": "tokenId",
          "type": "uint256"
        }
      ],
      "name": "safeTransferFrom",
      "outputs": [],
      "stateMutability": "nonpayable",
      "type": "function"
    },
    {
      "inputs": [
        {
          "internalType": "address",
          "name": "from",
          "type": "address"
        },
        {
          "internalType": "address",
          "name": "to",
          "type": "address"
        },
        {
          "internalType": "uint256",
          "name": "tokenId",
          "type": "uint256"
        },
        {
          "internalType": "bytes",
          "name": "data",
          "type": "bytes"
        }
      ],
      "name": "safeTransferFrom",
      "outputs": [],
      "stateMutability": "nonpayable",
      "type": "function"
    },
    {
      "inputs": [
        {
          "internalType": "address",
          "name": "operator",
          "type": "address"
        },
        {
          "internalType": "bool",
          "name": "approved",
          "type": "bool"
        }
      ],
      "name": "setApprovalForAll",
      "outputs": [],
      "stateMutability": "nonpayable",
      "type": "function"
    },
    {
      "inputs": [
        {
          "internalType": "address",
          "name": "",
          "type": "address"
        }
      ],
      "name": "studentToInternship",
      "outputs": [
        {
          "internalType": "uint256",
          "name": "",
          "type": "uint256"
        }
      ],
      "stateMutability": "view",
      "type": "function"
    },
    {
      "inputs": [
        {
          "internalType": "uint256",
          "name": "internshipId",
          "type": "uint256"
        },
        {
          "internalType": "string",
          "name": "ipfsHash",
          "type": "string"
        }
      ],
      "name": "submitReport",
      "outputs": [],
      "stateMutability": "nonpayable",
      "type": "function"
    },
    {
      "inputs": [
        {
          "internalType": "bytes4",
          "name": "interfaceId",
          "type": "bytes4"
        }
      ],
      "name": "supportsInterface",
      "outputs": [
        {
          "internalType": "bool",
          "name": "",
          "type": "bool"
        }
      ],
      "stateMutability": "view",
      "type": "function"
    },
    {
      "inputs": [],
      "name": "symbol",
      "outputs": [
        {
          "internalType": "string",
          "name": "",
          "type": "string"
        }
      ],
      "stateMutability": "view",
      "type": "function"
    },
    {
      "inputs": [
        {
          "internalType": "uint256",
          "name": "tokenId",
          "type": "uint256"
        }
      ],
      "name": "tokenURI",
      "outputs": [
        {
          "internalType": "string",
          "name": "",
          "type": "string"
        }
      ],
      "stateMutability": "view",
      "type": "function"
    },
    {
      "inputs": [
        {
          "internalType": "address",
          "name": "from",
          "type": "address"
        },
        {
          "internalType": "address",
          "name": "to",
          "type": "address"
        },
        {
          "internalType": "uint256",
          "name": "tokenId",
          "type": "uint256"
        }
      ],
      "name": "transferFrom",
      "outputs": [],
      "stateMutability": "nonpayable",
      "type": "function"
    },
    {
      "inputs": [],
      "name": "unpause",
      "outputs": [],
      "stateMutability": "nonpayable",
      "type": "function"
    },
    {
      "inputs": [
        {
          "internalType": "uint256",
          "name": "internshipId",
          "type": "uint256"
        }
      ],
      "name": "validateInternshipByCompany",
      "outputs": [],
      "stateMutability": "nonpayable",
      "type": "function"
    },
    {
      "inputs": [
        {
          "internalType": "uint256",
          "name": "internshipId",
          "type": "uint256"
        }
      ],
      "name": "validateReport",
      "outputs": [],
      "stateMutability": "nonpayable",
      "type": "function"
    },
    {
      "inputs": [
        {
          "internalType": "address",
          "name": "company",
          "type": "address"
        }
      ],
      "name": "whitelistCompany",
      "outputs": [],
      "stateMutability": "nonpayable",
      "type": "function"
    },
    {
      "inputs": [
        {
          "internalType": "address",
          "name": "",
          "type": "address"
        }
      ],
      "name": "whitelistedCompanies",
      "outputs": [
        {
          "internalType": "bool",
          "name": "",
          "type": "bool"
        }
      ],
      "stateMutability": "view",
      "type": "function"
    }
  ],
  "bytecode": "0x6080604052600160095534801562000015575f80fd5b506040518060400160405280601681526020017f496e7465726e73686970204365727469666963617465000000000000000000008152506040518060400160405280600781526020017f494e544345525400000000000000000000000000000000000000000000000000815250815f90816200009291906200048d565b508060019081620000a491906200048d565b505050620000bb5f801b33620000c260201b60201c565b5062000571565b5f620000d58383620001be60201b60201c565b620001b457600160075f8581526020019081526020015f205f015f8473ffffffffffffffffffffffffffffffffffffffff1673ffffffffffffffffffffffffffffffffffffffff1681526020019081526020015f205f6101000a81548160ff021916908315150217905550620001506200022260201b60201c565b73ffffffffffffffffffffffffffffffffffffffff168273ffffffffffffffffffffffffffffffffffffffff16847f2f8788117e7eff1d82e926ec794901d17c78024a50270940304540a733656f0d60405160405180910390a460019050620001b8565b5f90505b92915050565b5f60075f8481526020019081526020015f205f015f8373ffffffffffffffffffffffffffffffffffffffff1673ffffffffffffffffffffffffffffffffffffffff1681526020019081526020015f205f9054906101000a900460ff16905092915050565b5f33905090565b5f81519050919050565b7f4e487b71000000000000000000000000000000000000000000000000000000005f52604160045260245ffd5b7f4e487b71000000000000000000000000000000000000000000000000000000005f52602260045260245ffd5b5f6002820490506001821680620002a557607f821691505b602082108103620002bb57620002ba62000260565b5b50919050565b5f819050815f5260205f209050919050565b5f6020601f8301049050919050565b5f82821b905092915050565b5f600883026200031f7fffffffffffffffffffffffffffffffffffffffffffffffffffffffffffffffff82620002e2565b6200032b8683620002e2565b95508019841693508086168417925050509392505050565b5f819050919050565b5f819050919050565b5f620003756200036f620003698462000343565b6200034c565b62000343565b9050919050565b5f819050919050565b620003908362000355565b620003a86200039f826200037c565b848454620002ee565b825550505050565b5f90565b620003be620003b0565b620003cb81848462000385565b505050565b5b81811015620003f257620003e65f82620003b4565b600181019050620003d1565b5050565b601f82111562000441576200040b81620002c1565b6200041684620002d3565b8101602085101562000426578190505b6200043e6200043585620002d3565b830182620003d0565b50505b505050565b5f82821c905092915050565b5f620004635f198460080262000446565b1980831691505092915050565b5f6200047d838362000452565b9150826002028217905092915050565b620004988262000229565b67ffffffffffffffff811115620004b457620004b362000233565b5b620004c082546200028d565b620004cd828285620003f6565b5f60209050601f83116001811462000503575f8415620004ee578287015190505b620004fa858262000470565b86555062000569565b601f1984166200051386620002c1565b5f5b828110156200053c5784890151825560018201915060208501945060208101905062000515565b868310156200055c578489015162000558601f89168262000452565b8355505b6001600288020188555050505b505050505050565b6148af806200057f5f395ff3fe608060405234801561000f575f80fd5b50600436106101f9575f3560e01c80635c975abb11610118578063a22cb465116100ab578063d547741f1161007a578063d547741f146105c4578063dcea3c5b146105e0578063e3712a59146105fc578063e985e9c514610618578063eef82db514610648576101f9565b8063a22cb46514610540578063b88d4fde1461055c578063c186e93614610578578063c87b56dd14610594576101f9565b806390030457116100e757806390030457146104b857806391d14854146104d457806395d89b4114610504578063a217fddf14610522576101f9565b80635c975abb146104305780636352211e1461044e57806370a082311461047e5780638456cb59146104ae576101f9565b8063248a9ca3116101905780633f4ba83a1161015f5780633f4ba83a146103b75780634030f712146103c157806342842e0e146103dd57806348bd8010146103f9576101f9565b8063248a9ca31461031f5780632f2ff15d1461034f57806336568abe1461036b5780633910a5e514610387576101f9565b8063095ea7b3116101cc578063095ea7b31461029957806312b4c278146102b55780631c9ee11a146102e557806323b872dd14610303576101f9565b806301ffc9a7146101fd57806305f13c151461022d57806306fdde031461024b578063081812fc14610269575b5f80fd5b610217600480360381019061021291906134c6565b610664565b604051610224919061350b565b60405180910390f35b610235610675565b604051610242919061353c565b60405180910390f35b610253610699565b60405161026091906135df565b60405180910390f35b610283600480360381019061027e9190613632565b610728565b604051610290919061369c565b60405180910390f35b6102b360048036038101906102ae91906136df565b610743565b005b6102cf60048036038101906102ca919061371d565b610759565b6040516102dc9190613757565b60405180910390f35b6102ed61076e565b6040516102fa919061353c565b60405180910390f35b61031d60048036038101906103189190613770565b610792565b005b610339600480360381019061033491906137ea565b610891565b604051610346919061353c565b60405180910390f35b61036960048036038101906103649190613815565b6108ae565b005b61038560048036038101906103809190613815565b6108d0565b005b6103a1600480360381019061039c919061371d565b61094b565b6040516103ae919061350b565b60405180910390f35b6103bf610968565b005b6103db60048036038101906103d69190613632565b61097f565b005b6103f760048036038101906103f29190613770565b610b60565b005b610413600480360381019061040e9190613632565b610b7f565b60405161042798979695949392919061386e565b60405180910390f35b610438610fbd565b604051610445919061350b565b60405180910390f35b61046860048036038101906104639190613632565b610fd2565b604051610475919061369c565b60405180910390f35b6104986004803603810190610493919061371d565b610fe3565b6040516104a59190613757565b60405180910390f35b6104b6611099565b005b6104d260048036038101906104cd9190613a1d565b6110b0565b005b6104ee60048036038101906104e99190613815565b611240565b6040516104fb919061350b565b60405180910390f35b61050c6112a4565b60405161051991906135df565b60405180910390f35b61052a611334565b604051610537919061353c565b60405180910390f35b61055a60048036038101906105559190613aa1565b61133a565b005b61057660048036038101906105719190613b7d565b611350565b005b610592600480360381019061058d9190613632565b611375565b005b6105ae60048036038101906105a99190613632565b61150d565b6040516105bb91906135df565b60405180910390f35b6105de60048036038101906105d99190613815565b611589565b005b6105fa60048036038101906105f59190613bfd565b6115ab565b005b6106166004803603810190610611919061371d565b61199d565b005b610632600480360381019061062d9190613c4d565b611ad7565b60405161063f919061350b565b60405180910390f35b610662600480360381019061065d9190613cb5565b611b65565b005b5f61066e82611d6c565b9050919050565b7f060c8eced3c6b422fe5573c862b67b9f6e25a3fc7d9543b14f7aee77b138e70d81565b60605f80546106a790613d20565b80601f01602080910402602001604051908101604052809291908181526020018280546106d390613d20565b801561071e5780601f106106f55761010080835404028352916020019161071e565b820191905f5260205f20905b81548152906001019060200180831161070157829003601f168201915b5050505050905090565b5f61073282611de5565b5061073c82611e6b565b9050919050565b6107558282610750611ea4565b611eab565b5050565b600b602052805f5260405f205f915090505481565b7f9e1688b53537f356172ce07f39e129155063957163c5f9462d4d9e55b228b06c81565b5f73ffffffffffffffffffffffffffffffffffffffff168273ffffffffffffffffffffffffffffffffffffffff1603610802575f6040517f64a0ae920000000000000000000000000000000000000000000000000000000081526004016107f9919061369c565b60405180910390fd5b5f6108158383610810611ea4565b611ebd565b90508373ffffffffffffffffffffffffffffffffffffffff168173ffffffffffffffffffffffffffffffffffffffff161461088b578382826040517f64283d7b00000000000000000000000000000000000000000000000000000000815260040161088293929190613d50565b60405180910390fd5b50505050565b5f60075f8381526020019081526020015f20600101549050919050565b6108b782610891565b6108c0816120c8565b6108ca83836120dc565b50505050565b6108d8611ea4565b73ffffffffffffffffffffffffffffffffffffffff168173ffffffffffffffffffffffffffffffffffffffff161461093c576040517f6697b23200000000000000000000000000000000000000000000000000000000815260040160405180910390fd5b61094682826121c6565b505050565b600c602052805f5260405f205f915054906101000a900460ff1681565b5f801b610974816120c8565b61097c6122b0565b50565b7f060c8eced3c6b422fe5573c862b67b9f6e25a3fc7d9543b14f7aee77b138e70d6109a9816120c8565b6109b1612311565b5f600a5f8481526020019081526020015f2090503373ffffffffffffffffffffffffffffffffffffffff16816002015f9054906101000a900473ffffffffffffffffffffffffffffffffffffffff1673ffffffffffffffffffffffffffffffffffffffff1614610a56576040517f08c379a0000000000000000000000000000000000000000000000000000000008152600401610a4d90613dcf565b60405180910390fd5b5f816003018054610a6690613d20565b905011610aa8576040517f08c379a0000000000000000000000000000000000000000000000000000000008152600401610a9f90613e37565b60405180910390fd5b8060020160159054906101000a900460ff1615610afa576040517f08c379a0000000000000000000000000000000000000000000000000000000008152600401610af190613e9f565b60405180910390fd5b60018160020160156101000a81548160ff0219169083151502179055503373ffffffffffffffffffffffffffffffffffffffff16837f15ac49058e7e22f624a78633d6f65ea817ecb2671e449c148ce19c70ce3a452e60405160405180910390a3505050565b610b7a83838360405180602001604052805f815250611350565b505050565b5f805f805f8060605f80600a5f8b81526020019081526020015f20604051806101000160405290815f82015f9054906101000a900473ffffffffffffffffffffffffffffffffffffffff1673ffffffffffffffffffffffffffffffffffffffff1673ffffffffffffffffffffffffffffffffffffffff168152602001600182015f9054906101000a900473ffffffffffffffffffffffffffffffffffffffff1673ffffffffffffffffffffffffffffffffffffffff1673ffffffffffffffffffffffffffffffffffffffff168152602001600282015f9054906101000a900473ffffffffffffffffffffffffffffffffffffffff1673ffffffffffffffffffffffffffffffffffffffff1673ffffffffffffffffffffffffffffffffffffffff1681526020016002820160149054906101000a900460ff161515151581526020016002820160159054906101000a900460ff161515151581526020016002820160169054906101000a900460ff161515151581526020016002820160179054906101000a900460ff1660ff1660ff168152602001600382018054610d2290613d20565b80601f0160208091040260200160405190810160405280929190818152602001828054610d4e90613d20565b8015610d995780601f10610d7057610100808354040283529160200191610d99565b820191905f5260205f20905b815481529060010190602001808311610d7c57829003601f168201915b50505050508152505090505f73ffffffffffffffffffffffffffffffffffffffff16815f015173ffffffffffffffffffffffffffffffffffffffff1603610e15576040517f08c379a0000000000000000000000000000000000000000000000000000000008152600401610e0c90613f07565b60405180910390fd5b5f610e225f801b33611240565b90505f3373ffffffffffffffffffffffffffffffffffffffff16835f015173ffffffffffffffffffffffffffffffffffffffff161490505f3373ffffffffffffffffffffffffffffffffffffffff16846040015173ffffffffffffffffffffffffffffffffffffffff161490505f3373ffffffffffffffffffffffffffffffffffffffff16856020015173ffffffffffffffffffffffffffffffffffffffff161490508380610ece5750825b80610ed65750815b80610ede5750805b610f1d576040517f08c379a0000000000000000000000000000000000000000000000000000000008152600401610f1490613f6f565b60405180910390fd5b808015610f28575083155b15610f7557845f015185602001518660400151876060015188608001515f8a60a0015160405180602001604052805f815250909c509c509c509c509c509c509c509c505050505050610fb2565b845f015185602001518660400151876060015188608001518960c001518a60e001518b60a001519c509c509c509c509c509c509c509c5050505050505b919395975091939597565b5f60085f9054906101000a900460ff16905090565b5f610fdc82611de5565b9050919050565b5f8073ffffffffffffffffffffffffffffffffffffffff168273ffffffffffffffffffffffffffffffffffffffff1603611054575f6040517f89c62b6400000000000000000000000000000000000000000000000000000000815260040161104b919061369c565b60405180910390fd5b60035f8373ffffffffffffffffffffffffffffffffffffffff1673ffffffffffffffffffffffffffffffffffffffff1681526020019081526020015f20549050919050565b5f801b6110a5816120c8565b6110ad612352565b50565b6110b8612311565b5f600a5f8481526020019081526020015f2090503373ffffffffffffffffffffffffffffffffffffffff16815f015f9054906101000a900473ffffffffffffffffffffffffffffffffffffffff1673ffffffffffffffffffffffffffffffffffffffff161461115c576040517f08c379a000000000000000000000000000000000000000000000000000000000815260040161115390613fd7565b60405180910390fd5b5f82511161119f576040517f08c379a00000000000000000000000000000000000000000000000000000000081526004016111969061403f565b60405180910390fd5b8060020160159054906101000a900460ff16156111f1576040517f08c379a00000000000000000000000000000000000000000000000000000000081526004016111e8906140cd565b60405180910390fd5b818160030190816112029190614288565b50827f7ae3f1a31ce70d10f9e53cd62b8e20cb7c7144ad3ca92b54731ad7669689c1e68360405161123391906135df565b60405180910390a2505050565b5f60075f8481526020019081526020015f205f015f8373ffffffffffffffffffffffffffffffffffffffff1673ffffffffffffffffffffffffffffffffffffffff1681526020019081526020015f205f9054906101000a900460ff16905092915050565b6060600180546112b390613d20565b80601f01602080910402602001604051908101604052809291908181526020018280546112df90613d20565b801561132a5780601f106113015761010080835404028352916020019161132a565b820191905f5260205f20905b81548152906001019060200180831161130d57829003601f168201915b5050505050905090565b5f801b81565b61134c611345611ea4565b83836123b4565b5050565b61135b848484610792565b61136f611366611ea4565b8585858561258d565b50505050565b7f9e1688b53537f356172ce07f39e129155063957163c5f9462d4d9e55b228b06c61139f816120c8565b6113a7612311565b5f600a5f8481526020019081526020015f2090503373ffffffffffffffffffffffffffffffffffffffff16816001015f9054906101000a900473ffffffffffffffffffffffffffffffffffffffff1673ffffffffffffffffffffffffffffffffffffffff161461144c576040517f08c379a0000000000000000000000000000000000000000000000000000000008152600401611443906143a1565b60405180910390fd5b8060020160149054906101000a900460ff161561149e576040517f08c379a000000000000000000000000000000000000000000000000000000000815260040161149590613e9f565b60405180910390fd5b60018160020160146101000a81548160ff0219169083151502179055503373ffffffffffffffffffffffffffffffffffffffff16837faf9e2247c089741e0aa47ed04e8c3cafe61129dbc67fe465c6b19d92b85cc8f160405160405180910390a361150883612739565b505050565b606061151882611de5565b505f6115226129e5565b90505f61152e846129fb565b90505f825103611542578092505050611584565b5f8151111561157657818160405160200161155e9291906143f9565b60405160208183030381529060405292505050611584565b61157f84612a9c565b925050505b919050565b61159282610891565b61159b816120c8565b6115a583836121c6565b50505050565b5f801b6115b7816120c8565b6115bf612311565b5f600b5f8673ffffffffffffffffffffffffffffffffffffffff1673ffffffffffffffffffffffffffffffffffffffff1681526020019081526020015f20541461163e576040517f08c379a00000000000000000000000000000000000000000000000000000000081526004016116359061448c565b60405180910390fd5b600c5f8473ffffffffffffffffffffffffffffffffffffffff1673ffffffffffffffffffffffffffffffffffffffff1681526020019081526020015f205f9054906101000a900460ff166116c7576040517f08c379a00000000000000000000000000000000000000000000000000000000081526004016116be9061451a565b60405180910390fd5b5f60095f8154809291906116da90614565565b9190505590506040518061010001604052808673ffffffffffffffffffffffffffffffffffffffff1681526020018573ffffffffffffffffffffffffffffffffffffffff1681526020018473ffffffffffffffffffffffffffffffffffffffff1681526020015f151581526020015f151581526020015f151581526020015f60ff16815260200160405180602001604052805f815250815250600a5f8381526020019081526020015f205f820151815f015f6101000a81548173ffffffffffffffffffffffffffffffffffffffff021916908373ffffffffffffffffffffffffffffffffffffffff1602179055506020820151816001015f6101000a81548173ffffffffffffffffffffffffffffffffffffffff021916908373ffffffffffffffffffffffffffffffffffffffff1602179055506040820151816002015f6101000a81548173ffffffffffffffffffffffffffffffffffffffff021916908373ffffffffffffffffffffffffffffffffffffffff16021790555060608201518160020160146101000a81548160ff02191690831515021790555060808201518160020160156101000a81548160ff02191690831515021790555060a08201518160020160166101000a81548160ff02191690831515021790555060c08201518160020160176101000a81548160ff021916908360ff16021790555060e08201518160030190816118ea9190614288565b5090505080600b5f8773ffffffffffffffffffffffffffffffffffffffff1673ffffffffffffffffffffffffffffffffffffffff1681526020019081526020015f20819055508373ffffffffffffffffffffffffffffffffffffffff168573ffffffffffffffffffffffffffffffffffffffff16827f93c9458a51f08856592e9395d3bf3d3c9ec42d6ccc499c237e7ba3b25dad224c8660405161198e919061369c565b60405180910390a45050505050565b5f801b6119a9816120c8565b6119b1612311565b600c5f8373ffffffffffffffffffffffffffffffffffffffff1673ffffffffffffffffffffffffffffffffffffffff1681526020019081526020015f205f9054906101000a900460ff1615611a3b576040517f08c379a0000000000000000000000000000000000000000000000000000000008152600401611a32906145f6565b60405180910390fd5b6001600c5f8473ffffffffffffffffffffffffffffffffffffffff1673ffffffffffffffffffffffffffffffffffffffff1681526020019081526020015f205f6101000a81548160ff0219169083151502179055508173ffffffffffffffffffffffffffffffffffffffff167fc31c8c12fe4bcf01a91d82e8ee9f9b684662894fc1200fc78e0594015ded4d8b60405160405180910390a25050565b5f60055f8473ffffffffffffffffffffffffffffffffffffffff1673ffffffffffffffffffffffffffffffffffffffff1681526020019081526020015f205f8373ffffffffffffffffffffffffffffffffffffffff1673ffffffffffffffffffffffffffffffffffffffff1681526020019081526020015f205f9054906101000a900460ff16905092915050565b7f060c8eced3c6b422fe5573c862b67b9f6e25a3fc7d9543b14f7aee77b138e70d611b8f816120c8565b611b97612311565b5f600a5f8581526020019081526020015f2090503373ffffffffffffffffffffffffffffffffffffffff16816002015f9054906101000a900473ffffffffffffffffffffffffffffffffffffffff1673ffffffffffffffffffffffffffffffffffffffff1614611c3c576040517f08c379a0000000000000000000000000000000000000000000000000000000008152600401611c3390613dcf565b60405180910390fd5b8060020160159054906101000a900460ff16611c8d576040517f08c379a0000000000000000000000000000000000000000000000000000000008152600401611c8490614684565b60405180910390fd5b60648360ff161115611cd4576040517f08c379a0000000000000000000000000000000000000000000000000000000008152600401611ccb906146ec565b60405180910390fd5b828160020160176101000a81548160ff021916908360ff16021790555060018160020160166101000a81548160ff0219169083151502179055503373ffffffffffffffffffffffffffffffffffffffff16847faa7d15700f072b75a02018a60113fc988d187d3e5c7c86122df2abcb775e87b585604051611d55919061470a565b60405180910390a3611d6684612739565b50505050565b5f7f7965db0b000000000000000000000000000000000000000000000000000000007bffffffffffffffffffffffffffffffffffffffffffffffffffffffff1916827bffffffffffffffffffffffffffffffffffffffffffffffffffffffff19161480611dde5750611ddd82612b02565b5b9050919050565b5f80611df083612b62565b90505f73ffffffffffffffffffffffffffffffffffffffff168173ffffffffffffffffffffffffffffffffffffffff1603611e6257826040517f7e273289000000000000000000000000000000000000000000000000000000008152600401611e599190613757565b60405180910390fd5b80915050919050565b5f60045f8381526020019081526020015f205f9054906101000a900473ffffffffffffffffffffffffffffffffffffffff169050919050565b5f33905090565b611eb88383836001612b9b565b505050565b5f80611ec884612b62565b90505f73ffffffffffffffffffffffffffffffffffffffff168373ffffffffffffffffffffffffffffffffffffffff1614611f0957611f08818486612d5a565b5b5f73ffffffffffffffffffffffffffffffffffffffff168173ffffffffffffffffffffffffffffffffffffffff1614611f9457611f485f855f80612b9b565b600160035f8373ffffffffffffffffffffffffffffffffffffffff1673ffffffffffffffffffffffffffffffffffffffff1681526020019081526020015f205f82825403925050819055505b5f73ffffffffffffffffffffffffffffffffffffffff168573ffffffffffffffffffffffffffffffffffffffff161461201357600160035f8773ffffffffffffffffffffffffffffffffffffffff1673ffffffffffffffffffffffffffffffffffffffff1681526020019081526020015f205f82825401925050819055505b8460025f8681526020019081526020015f205f6101000a81548173ffffffffffffffffffffffffffffffffffffffff021916908373ffffffffffffffffffffffffffffffffffffffff160217905550838573ffffffffffffffffffffffffffffffffffffffff168273ffffffffffffffffffffffffffffffffffffffff167fddf252ad1be2c89b69c2b068fc378daa952ba7f163c4a11628f55a4df523b3ef60405160405180910390a4809150509392505050565b6120d9816120d4611ea4565b612e1d565b50565b5f6120e78383611240565b6121bc57600160075f8581526020019081526020015f205f015f8473ffffffffffffffffffffffffffffffffffffffff1673ffffffffffffffffffffffffffffffffffffffff1681526020019081526020015f205f6101000a81548160ff021916908315150217905550612159611ea4565b73ffffffffffffffffffffffffffffffffffffffff168273ffffffffffffffffffffffffffffffffffffffff16847f2f8788117e7eff1d82e926ec794901d17c78024a50270940304540a733656f0d60405160405180910390a4600190506121c0565b5f90505b92915050565b5f6121d18383611240565b156122a6575f60075f8581526020019081526020015f205f015f8473ffffffffffffffffffffffffffffffffffffffff1673ffffffffffffffffffffffffffffffffffffffff1681526020019081526020015f205f6101000a81548160ff021916908315150217905550612243611ea4565b73ffffffffffffffffffffffffffffffffffffffff168273ffffffffffffffffffffffffffffffffffffffff16847ff6391f5c32d9c69d2a47ea670b442974b53935d1edc7fd64eb21e047a839171b60405160405180910390a4600190506122aa565b5f90505b92915050565b6122b8612e6e565b5f60085f6101000a81548160ff0219169083151502179055507f5db9ee0a495bf2e6ff9c91a7834c1ba4fdd244a5e8aa4e537bd38aeae4b073aa6122fa611ea4565b604051612307919061369c565b60405180910390a1565b612319610fbd565b15612350576040517fd93c066500000000000000000000000000000000000000000000000000000000815260040160405180910390fd5b565b61235a612311565b600160085f6101000a81548160ff0219169083151502179055507f62e78cea01bee320cd4e420270b5ea74000d11b0c9f74754ebdbfc544b05a25861239d611ea4565b6040516123aa919061369c565b60405180910390a1565b5f73ffffffffffffffffffffffffffffffffffffffff168373ffffffffffffffffffffffffffffffffffffffff1603612424575f6040517fa9fbf51f00000000000000000000000000000000000000000000000000000000815260040161241b919061369c565b60405180910390fd5b5f73ffffffffffffffffffffffffffffffffffffffff168273ffffffffffffffffffffffffffffffffffffffff160361249457816040517f5b08ba1800000000000000000000000000000000000000000000000000000000815260040161248b919061369c565b60405180910390fd5b8060055f8573ffffffffffffffffffffffffffffffffffffffff1673ffffffffffffffffffffffffffffffffffffffff1681526020019081526020015f205f8473ffffffffffffffffffffffffffffffffffffffff1673ffffffffffffffffffffffffffffffffffffffff1681526020019081526020015f205f6101000a81548160ff0219169083151502179055508173ffffffffffffffffffffffffffffffffffffffff168373ffffffffffffffffffffffffffffffffffffffff167f17307eab39ab6107e8899845ad3d59bd9653f200f220920489ca2b5937696c3183604051612580919061350b565b60405180910390a3505050565b5f8373ffffffffffffffffffffffffffffffffffffffff163b1115612732578273ffffffffffffffffffffffffffffffffffffffff1663150b7a02868685856040518563ffffffff1660e01b81526004016125eb9493929190614775565b6020604051808303815f875af192505050801561262657506040513d601f19601f8201168201806040525081019061262391906147d3565b60015b6126a7573d805f8114612654576040519150601f19603f3d011682016040523d82523d5f602084013e612659565b606091505b505f81510361269f57836040517f64a0ae92000000000000000000000000000000000000000000000000000000008152600401612696919061369c565b60405180910390fd5b805160208201fd5b63150b7a0260e01b7bffffffffffffffffffffffffffffffffffffffffffffffffffffffff1916817bffffffffffffffffffffffffffffffffffffffffffffffffffffffff19161461273057836040517f64a0ae92000000000000000000000000000000000000000000000000000000008152600401612727919061369c565b60405180910390fd5b505b5050505050565b5f600a5f8381526020019081526020015f20604051806101000160405290815f82015f9054906101000a900473ffffffffffffffffffffffffffffffffffffffff1673ffffffffffffffffffffffffffffffffffffffff1673ffffffffffffffffffffffffffffffffffffffff168152602001600182015f9054906101000a900473ffffffffffffffffffffffffffffffffffffffff1673ffffffffffffffffffffffffffffffffffffffff1673ffffffffffffffffffffffffffffffffffffffff168152602001600282015f9054906101000a900473ffffffffffffffffffffffffffffffffffffffff1673ffffffffffffffffffffffffffffffffffffffff1673ffffffffffffffffffffffffffffffffffffffff1681526020016002820160149054906101000a900460ff161515151581526020016002820160159054906101000a900460ff161515151581526020016002820160169054906101000a900460ff161515151581526020016002820160179054906101000a900460ff1660ff1660ff1681526020016003820180546128d390613d20565b80601f01602080910402602001604051908101604052809291908181526020018280546128ff90613d20565b801561294a5780601f106129215761010080835404028352916020019161294a565b820191905f5260205f20905b81548152906001019060200180831161292d57829003601f168201915b505050505081525050905080606001518015612967575080608001515b801561297457508060a001515b156129e1575f82905061298a825f015182612eae565b612998818360e00151612ecb565b80825f015173ffffffffffffffffffffffffffffffffffffffff167fe351802b022b8ba03353eafd05148198c0dc13061427df4dbbbbfc5c726a1b9e60405160405180910390a3505b5050565b606060405180602001604052805f815250905090565b606060065f8381526020019081526020015f208054612a1990613d20565b80601f0160208091040260200160405190810160405280929190818152602001828054612a4590613d20565b8015612a905780601f10612a6757610100808354040283529160200191612a90565b820191905f5260205f20905b815481529060010190602001808311612a7357829003601f168201915b50505050509050919050565b6060612aa782611de5565b505f612ab16129e5565b90505f815111612acf5760405180602001604052805f815250612afa565b80612ad984612f25565b604051602001612aea9291906143f9565b6040516020818303038152906040525b915050919050565b5f634906490660e01b7bffffffffffffffffffffffffffffffffffffffffffffffffffffffff1916827bffffffffffffffffffffffffffffffffffffffffffffffffffffffff19161480612b5b5750612b5a82612fef565b5b9050919050565b5f60025f8381526020019081526020015f205f9054906101000a900473ffffffffffffffffffffffffffffffffffffffff169050919050565b8080612bd357505f73ffffffffffffffffffffffffffffffffffffffff168273ffffffffffffffffffffffffffffffffffffffff1614155b15612d05575f612be284611de5565b90505f73ffffffffffffffffffffffffffffffffffffffff168373ffffffffffffffffffffffffffffffffffffffff1614158015612c4c57508273ffffffffffffffffffffffffffffffffffffffff168173ffffffffffffffffffffffffffffffffffffffff1614155b8015612c5f5750612c5d8184611ad7565b155b15612ca157826040517fa9fbf51f000000000000000000000000000000000000000000000000000000008152600401612c98919061369c565b60405180910390fd5b8115612d0357838573ffffffffffffffffffffffffffffffffffffffff168273ffffffffffffffffffffffffffffffffffffffff167f8c5be1e5ebec7d5bd14f71427d1e84f3dd0314c0f7b2291e5b200ac8c7c3b92560405160405180910390a45b505b8360045f8581526020019081526020015f205f6101000a81548173ffffffffffffffffffffffffffffffffffffffff021916908373ffffffffffffffffffffffffffffffffffffffff16021790555050505050565b612d658383836130d0565b612e18575f73ffffffffffffffffffffffffffffffffffffffff168373ffffffffffffffffffffffffffffffffffffffff1603612dd957806040517f7e273289000000000000000000000000000000000000000000000000000000008152600401612dd09190613757565b60405180910390fd5b81816040517f177e802f000000000000000000000000000000000000000000000000000000008152600401612e0f9291906147fe565b60405180910390fd5b505050565b612e278282611240565b612e6a5780826040517fe2517d3f000000000000000000000000000000000000000000000000000000008152600401612e61929190614825565b60405180910390fd5b5050565b612e76610fbd565b612eac576040517f8dfc202b00000000000000000000000000000000000000000000000000000000815260040160405180910390fd5b565b612ec7828260405180602001604052805f815250613190565b5050565b8060065f8481526020019081526020015f209081612ee99190614288565b507ff8e1a15aba9398e019f0b49df1a4fde98ee17ae345cb5f6b5e2c27f5033e8ce782604051612f199190613757565b60405180910390a15050565b60605f6001612f33846131b3565b0190505f8167ffffffffffffffff811115612f5157612f506138f9565b5b6040519080825280601f01601f191660200182016040528015612f835781602001600182028036833780820191505090505b5090505f82602083010190505b600115612fe4578080600190039150507f3031323334353637383961626364656600000000000000000000000000000000600a86061a8153600a8581612fd957612fd861484c565b5b0494505f8503612f90575b819350505050919050565b5f7f80ac58cd000000000000000000000000000000000000000000000000000000007bffffffffffffffffffffffffffffffffffffffffffffffffffffffff1916827bffffffffffffffffffffffffffffffffffffffffffffffffffffffff191614806130b957507f5b5e139f000000000000000000000000000000000000000000000000000000007bffffffffffffffffffffffffffffffffffffffffffffffffffffffff1916827bffffffffffffffffffffffffffffffffffffffffffffffffffffffff1916145b806130c957506130c882613304565b5b9050919050565b5f8073ffffffffffffffffffffffffffffffffffffffff168373ffffffffffffffffffffffffffffffffffffffff161415801561318757508273ffffffffffffffffffffffffffffffffffffffff168473ffffffffffffffffffffffffffffffffffffffff16148061314857506131478484611ad7565b5b8061318657508273ffffffffffffffffffffffffffffffffffffffff1661316e83611e6b565b73ffffffffffffffffffffffffffffffffffffffff16145b5b90509392505050565b61319a838361336d565b6131ae6131a5611ea4565b5f85858561258d565b505050565b5f805f90507a184f03e93ff9f4daa797ed6e38ed64bf6a1f010000000000000000831061320f577a184f03e93ff9f4daa797ed6e38ed64bf6a1f01000000000000000083816132055761320461484c565b5b0492506040810190505b6d04ee2d6d415b85acef8100000000831061324c576d04ee2d6d415b85acef810000000083816132425761324161484c565b5b0492506020810190505b662386f26fc10000831061327b57662386f26fc1000083816132715761327061484c565b5b0492506010810190505b6305f5e10083106132a4576305f5e100838161329a5761329961484c565b5b0492506008810190505b61271083106132c95761271083816132bf576132be61484c565b5b0492506004810190505b606483106132ec57606483816132e2576132e161484c565b5b0492506002810190505b600a83106132fb576001810190505b80915050919050565b5f7f01ffc9a7000000000000000000000000000000000000000000000000000000007bffffffffffffffffffffffffffffffffffffffffffffffffffffffff1916827bffffffffffffffffffffffffffffffffffffffffffffffffffffffff1916149050919050565b5f73ffffffffffffffffffffffffffffffffffffffff168273ffffffffffffffffffffffffffffffffffffffff16036133dd575f6040517f64a0ae920000000000000000000000000000000000000000000000000000000081526004016133d4919061369c565b60405180910390fd5b5f6133e983835f611ebd565b90505f73ffffffffffffffffffffffffffffffffffffffff168173ffffffffffffffffffffffffffffffffffffffff161461345b575f6040517f73c6ac6e000000000000000000000000000000000000000000000000000000008152600401613452919061369c565b60405180910390fd5b505050565b5f604051905090565b5f80fd5b5f80fd5b5f7fffffffff0000000000000000000000000000000000000000000000000000000082169050919050565b6134a581613471565b81146134af575f80fd5b50565b5f813590506134c08161349c565b92915050565b5f602082840312156134db576134da613469565b5b5f6134e8848285016134b2565b91505092915050565b5f8115159050919050565b613505816134f1565b82525050565b5f60208201905061351e5f8301846134fc565b92915050565b5f819050919050565b61353681613524565b82525050565b5f60208201905061354f5f83018461352d565b92915050565b5f81519050919050565b5f82825260208201905092915050565b5f5b8381101561358c578082015181840152602081019050613571565b5f8484015250505050565b5f601f19601f8301169050919050565b5f6135b182613555565b6135bb818561355f565b93506135cb81856020860161356f565b6135d481613597565b840191505092915050565b5f6020820190508181035f8301526135f781846135a7565b905092915050565b5f819050919050565b613611816135ff565b811461361b575f80fd5b50565b5f8135905061362c81613608565b92915050565b5f6020828403121561364757613646613469565b5b5f6136548482850161361e565b91505092915050565b5f73ffffffffffffffffffffffffffffffffffffffff82169050919050565b5f6136868261365d565b9050919050565b6136968161367c565b82525050565b5f6020820190506136af5f83018461368d565b92915050565b6136be8161367c565b81146136c8575f80fd5b50565b5f813590506136d9816136b5565b92915050565b5f80604083850312156136f5576136f4613469565b5b5f613702858286016136cb565b92505060206137138582860161361e565b9150509250929050565b5f6020828403121561373257613731613469565b5b5f61373f848285016136cb565b91505092915050565b613751816135ff565b82525050565b5f60208201905061376a5f830184613748565b92915050565b5f805f6060848603121561378757613786613469565b5b5f613794868287016136cb565b93505060206137a5868287016136cb565b92505060406137b68682870161361e565b9150509250925092565b6137c981613524565b81146137d3575f80fd5b50565b5f813590506137e4816137c0565b92915050565b5f602082840312156137ff576137fe613469565b5b5f61380c848285016137d6565b91505092915050565b5f806040838503121561382b5761382a613469565b5b5f613838858286016137d6565b9250506020613849858286016136cb565b9150509250929050565b5f60ff82169050919050565b61386881613853565b82525050565b5f610100820190506138825f83018b61368d565b61388f602083018a61368d565b61389c604083018961368d565b6138a960608301886134fc565b6138b660808301876134fc565b6138c360a083018661385f565b81810360c08301526138d581856135a7565b90506138e460e08301846134fc565b9998505050505050505050565b5f80fd5b5f80fd5b7f4e487b71000000000000000000000000000000000000000000000000000000005f52604160045260245ffd5b61392f82613597565b810181811067ffffffffffffffff8211171561394e5761394d6138f9565b5b80604052505050565b5f613960613460565b905061396c8282613926565b919050565b5f67ffffffffffffffff82111561398b5761398a6138f9565b5b61399482613597565b9050602081019050919050565b828183375f83830152505050565b5f6139c16139bc84613971565b613957565b9050828152602081018484840111156139dd576139dc6138f5565b5b6139e88482856139a1565b509392505050565b5f82601f830112613a0457613a036138f1565b5b8135613a148482602086016139af565b91505092915050565b5f8060408385031215613a3357613a32613469565b5b5f613a408582860161361e565b925050602083013567ffffffffffffffff811115613a6157613a6061346d565b5b613a6d858286016139f0565b9150509250929050565b613a80816134f1565b8114613a8a575f80fd5b50565b5f81359050613a9b81613a77565b92915050565b5f8060408385031215613ab757613ab6613469565b5b5f613ac4858286016136cb565b9250506020613ad585828601613a8d565b9150509250929050565b5f67ffffffffffffffff821115613af957613af86138f9565b5b613b0282613597565b9050602081019050919050565b5f613b21613b1c84613adf565b613957565b905082815260208101848484011115613b3d57613b3c6138f5565b5b613b488482856139a1565b509392505050565b5f82601f830112613b6457613b636138f1565b5b8135613b74848260208601613b0f565b91505092915050565b5f805f8060808587031215613b9557613b94613469565b5b5f613ba2878288016136cb565b9450506020613bb3878288016136cb565b9350506040613bc48782880161361e565b925050606085013567ffffffffffffffff811115613be557613be461346d565b5b613bf187828801613b50565b91505092959194509250565b5f805f60608486031215613c1457613c13613469565b5b5f613c21868287016136cb565b9350506020613c32868287016136cb565b9250506040613c43868287016136cb565b9150509250925092565b5f8060408385031215613c6357613c62613469565b5b5f613c70858286016136cb565b9250506020613c81858286016136cb565b9150509250929050565b613c9481613853565b8114613c9e575f80fd5b50565b5f81359050613caf81613c8b565b92915050565b5f8060408385031215613ccb57613cca613469565b5b5f613cd88582860161361e565b9250506020613ce985828601613ca1565b9150509250929050565b7f4e487b71000000000000000000000000000000000000000000000000000000005f52602260045260245ffd5b5f6002820490506001821680613d3757607f821691505b602082108103613d4a57613d49613cf3565b5b50919050565b5f606082019050613d635f83018661368d565b613d706020830185613748565b613d7d604083018461368d565b949350505050565b7f4e6f74207468652064657369676e617465642073757065727669736f720000005f82015250565b5f613db9601d8361355f565b9150613dc482613d85565b602082019050919050565b5f6020820190508181035f830152613de681613dad565b9050919050565b7f5265706f7274206e6f74207375626d69747465642079657400000000000000005f82015250565b5f613e2160188361355f565b9150613e2c82613ded565b602082019050919050565b5f6020820190508181035f830152613e4e81613e15565b9050919050565b7f416c72656164792076616c6964617465640000000000000000000000000000005f82015250565b5f613e8960118361355f565b9150613e9482613e55565b602082019050919050565b5f6020820190508181035f830152613eb681613e7d565b9050919050565b7f496e7465726e7368697020646f6573206e6f74206578697374000000000000005f82015250565b5f613ef160198361355f565b9150613efc82613ebd565b602082019050919050565b5f6020820190508181035f830152613f1e81613ee5565b9050919050565b7f4163636573732064656e6965643a204e6f742061207061727469636970616e745f82015250565b5f613f5960208361355f565b9150613f6482613f25565b602082019050919050565b5f6020820190508181035f830152613f8681613f4d565b9050919050565b7f4e6f74207468652064657369676e617465642073747564656e740000000000005f82015250565b5f613fc1601a8361355f565b9150613fcc82613f8d565b602082019050919050565b5f6020820190508181035f830152613fee81613fb5565b9050919050565b7f456d7074792049504653206861736800000000000000000000000000000000005f82015250565b5f614029600f8361355f565b915061403482613ff5565b602082019050919050565b5f6020820190508181035f8301526140568161401d565b9050919050565b7f5265706f727420616c72656164792076616c69646174656420616e64206c6f635f8201527f6b65640000000000000000000000000000000000000000000000000000000000602082015250565b5f6140b760238361355f565b91506140c28261405d565b604082019050919050565b5f6020820190508181035f8301526140e4816140ab565b9050919050565b5f819050815f5260205f209050919050565b5f6020601f8301049050919050565b5f82821b905092915050565b5f600883026141477fffffffffffffffffffffffffffffffffffffffffffffffffffffffffffffffff8261410c565b614151868361410c565b95508019841693508086168417925050509392505050565b5f819050919050565b5f61418c614187614182846135ff565b614169565b6135ff565b9050919050565b5f819050919050565b6141a583614172565b6141b96141b182614193565b848454614118565b825550505050565b5f90565b6141cd6141c1565b6141d881848461419c565b505050565b5b818110156141fb576141f05f826141c5565b6001810190506141de565b5050565b601f82111561424057614211816140eb565b61421a846140fd565b81016020851015614229578190505b61423d614235856140fd565b8301826141dd565b50505b505050565b5f82821c905092915050565b5f6142605f1984600802614245565b1980831691505092915050565b5f6142788383614251565b9150826002028217905092915050565b61429182613555565b67ffffffffffffffff8111156142aa576142a96138f9565b5b6142b48254613d20565b6142bf8282856141ff565b5f60209050601f8311600181146142f0575f84156142de578287015190505b6142e8858261426d565b86555061434f565b601f1984166142fe866140eb565b5f5b8281101561432557848901518255600182019150602085019450602081019050614300565b86831015614342578489015161433e601f891682614251565b8355505b6001600288020188555050505b505050505050565b7f4e6f74207468652064657369676e6174656420636f6d70616e790000000000005f82015250565b5f61438b601a8361355f565b915061439682614357565b602082019050919050565b5f6020820190508181035f8301526143b88161437f565b9050919050565b5f81905092915050565b5f6143d382613555565b6143dd81856143bf565b93506143ed81856020860161356f565b80840191505092915050565b5f61440482856143c9565b915061441082846143c9565b91508190509392505050565b7f53747564656e7420616c72656164792068617320616e20696e7465726e7368695f8201527f7000000000000000000000000000000000000000000000000000000000000000602082015250565b5f61447660218361355f565b91506144818261441c565b604082019050919050565b5f6020820190508181035f8301526144a38161446a565b9050919050565b7f436f6d70616e79206973206e6f742077686974656c69737465642062792041645f8201527f6d696e0000000000000000000000000000000000000000000000000000000000602082015250565b5f61450460238361355f565b915061450f826144aa565b604082019050919050565b5f6020820190508181035f830152614531816144f8565b9050919050565b7f4e487b71000000000000000000000000000000000000000000000000000000005f52601160045260245ffd5b5f61456f826135ff565b91507fffffffffffffffffffffffffffffffffffffffffffffffffffffffffffffffff82036145a1576145a0614538565b5b600182019050919050565b7f436f6d70616e7920616c72656164792077686974656c697374656400000000005f82015250565b5f6145e0601b8361355f565b91506145eb826145ac565b602082019050919050565b5f6020820190508181035f83015261460d816145d4565b9050919050565b7f5265706f7274206d7573742062652076616c69646174656420666972737420625f8201527f65666f72652067726164696e6700000000000000000000000000000000000000602082015250565b5f61466e602d8361355f565b915061467982614614565b604082019050919050565b5f6020820190508181035f83015261469b81614662565b9050919050565b7f4772616465206d757374206265203c3d203130300000000000000000000000005f82015250565b5f6146d660148361355f565b91506146e1826146a2565b602082019050919050565b5f6020820190508181035f830152614703816146ca565b9050919050565b5f60208201905061471d5f83018461385f565b92915050565b5f81519050919050565b5f82825260208201905092915050565b5f61474782614723565b614751818561472d565b935061476181856020860161356f565b61476a81613597565b840191505092915050565b5f6080820190506147885f83018761368d565b614795602083018661368d565b6147a26040830185613748565b81810360608301526147b4818461473d565b905095945050505050565b5f815190506147cd8161349c565b92915050565b5f602082840312156147e8576147e7613469565b5b5f6147f5848285016147bf565b91505092915050565b5f6040820190506148115f83018561368d565b61481e6020830184613748565b9392505050565b5f6040820190506148385f83018561368d565b614845602083018461352d565b9392505050565b7f4e487b71000000000000000000000000000000000000000000000000000000005f52601260045260245ffdfea2646970667358221220c9e89eece476cfbd2283ed7cdcecfa1960207d160c17208da0438c4709c5429e64736f6c63430008180033",
  "linkReferences": {},
  "deployedLinkReferences": {}
}